{
  "contractName": "KoreaVehicleVendors",
  "abi": [
    {
      "constant": false,
      "inputs": [],
      "name": "renounceOwnership",
      "outputs": [],
      "payable": false,
      "stateMutability": "nonpayable",
      "type": "function"
    },
    {
      "constant": true,
      "inputs": [],
      "name": "owner",
      "outputs": [
        {
          "name": "",
          "type": "address"
        }
      ],
      "payable": false,
      "stateMutability": "view",
      "type": "function"
    },
    {
      "constant": true,
      "inputs": [],
      "name": "isOwner",
      "outputs": [
        {
          "name": "",
          "type": "bool"
        }
      ],
      "payable": false,
      "stateMutability": "view",
      "type": "function"
    },
    {
      "constant": false,
      "inputs": [
        {
          "name": "newOwner",
          "type": "address"
        }
      ],
      "name": "transferOwnership",
      "outputs": [],
      "payable": false,
      "stateMutability": "nonpayable",
      "type": "function"
    },
    {
      "inputs": [],
      "payable": false,
      "stateMutability": "nonpayable",
      "type": "constructor"
    },
    {
      "anonymous": false,
      "inputs": [
        {
          "indexed": false,
          "name": "vendorName",
          "type": "bytes32"
        },
        {
          "indexed": false,
          "name": "vendorAdmin",
          "type": "address"
        }
      ],
      "name": "AddVehicleVendor",
      "type": "event"
    },
    {
      "anonymous": false,
      "inputs": [
        {
          "indexed": true,
          "name": "previousOwner",
          "type": "address"
        },
        {
          "indexed": true,
          "name": "newOwner",
          "type": "address"
        }
      ],
      "name": "OwnershipTransferred",
      "type": "event"
    },
    {
      "constant": false,
      "inputs": [
        {
          "name": "_vendorName",
          "type": "bytes32"
        },
        {
          "name": "_vendorAdmin",
          "type": "address"
        }
      ],
      "name": "addVehicleVendor",
      "outputs": [
        {
          "name": "success",
          "type": "bool"
        }
      ],
      "payable": false,
      "stateMutability": "nonpayable",
      "type": "function"
    }
  ],
  "bytecode": "0x608060405234801561001057600080fd5b5061001f6100df60201b60201c565b6000806101000a81548173ffffffffffffffffffffffffffffffffffffffff021916908373ffffffffffffffffffffffffffffffffffffffff1602179055506000809054906101000a900473ffffffffffffffffffffffffffffffffffffffff1673ffffffffffffffffffffffffffffffffffffffff16600073ffffffffffffffffffffffffffffffffffffffff167f8be0079c531659141344cd1fd0a4f28419497f9722a3daafe3b4186f6b6457e060405160405180910390a36100e7565b600033905090565b610867806100f66000396000f3fe608060405234801561001057600080fd5b50600436106100575760003560e01c806341141a171461005c578063715018a6146100c25780638da5cb5b146100cc5780638f32d59b14610116578063f2fde38b14610138575b600080fd5b6100a86004803603604081101561007257600080fd5b8101908080359060200190929190803573ffffffffffffffffffffffffffffffffffffffff16906020019092919050505061017c565b604051808215151515815260200191505060405180910390f35b6100ca61045d565b005b6100d4610596565b604051808273ffffffffffffffffffffffffffffffffffffffff1673ffffffffffffffffffffffffffffffffffffffff16815260200191505060405180910390f35b61011e6105bf565b604051808215151515815260200191505060405180910390f35b61017a6004803603602081101561014e57600080fd5b81019080803573ffffffffffffffffffffffffffffffffffffffff16906020019092919050505061061d565b005b60006101866105bf565b6101f8576040517f08c379a00000000000000000000000000000000000000000000000000000000081526004018080602001828103825260208152602001807f4f776e61626c653a2063616c6c6572206973206e6f7420746865206f776e657281525060200191505060405180910390fd5b8160001515600260008373ffffffffffffffffffffffffffffffffffffffff1673ffffffffffffffffffffffffffffffffffffffff16815260200190815260200160002060009054906101000a900460ff161515146102a2576040517f08c379a00000000000000000000000000000000000000000000000000000000081526004018080602001828103825260268152602001806108166026913960400191505060405180910390fd5b83600160008573ffffffffffffffffffffffffffffffffffffffff1673ffffffffffffffffffffffffffffffffffffffff16815260200190815260200160002060000181905550600160008473ffffffffffffffffffffffffffffffffffffffff1673ffffffffffffffffffffffffffffffffffffffff1681526020019081526020016000206001018390806001815401808255809150509060018203906000526020600020016000909192909190916101000a81548173ffffffffffffffffffffffffffffffffffffffff021916908373ffffffffffffffffffffffffffffffffffffffff160217905550507f72faafae076b34bca7394603d775fc1a5d9081361444587f79eeb5e8e157304f8484604051808381526020018273ffffffffffffffffffffffffffffffffffffffff1673ffffffffffffffffffffffffffffffffffffffff1681526020019250505060405180910390a16001600260008573ffffffffffffffffffffffffffffffffffffffff1673ffffffffffffffffffffffffffffffffffffffff16815260200190815260200160002060006101000a81548160ff021916908315150217905550600191505092915050565b6104656105bf565b6104d7576040517f08c379a00000000000000000000000000000000000000000000000000000000081526004018080602001828103825260208152602001807f4f776e61626c653a2063616c6c6572206973206e6f7420746865206f776e657281525060200191505060405180910390fd5b600073ffffffffffffffffffffffffffffffffffffffff166000809054906101000a900473ffffffffffffffffffffffffffffffffffffffff1673ffffffffffffffffffffffffffffffffffffffff167f8be0079c531659141344cd1fd0a4f28419497f9722a3daafe3b4186f6b6457e060405160405180910390a360008060006101000a81548173ffffffffffffffffffffffffffffffffffffffff021916908373ffffffffffffffffffffffffffffffffffffffff160217905550565b60008060009054906101000a900473ffffffffffffffffffffffffffffffffffffffff16905090565b60008060009054906101000a900473ffffffffffffffffffffffffffffffffffffffff1673ffffffffffffffffffffffffffffffffffffffff166106016106a3565b73ffffffffffffffffffffffffffffffffffffffff1614905090565b6106256105bf565b610697576040517f08c379a00000000000000000000000000000000000000000000000000000000081526004018080602001828103825260208152602001807f4f776e61626c653a2063616c6c6572206973206e6f7420746865206f776e657281525060200191505060405180910390fd5b6106a0816106ab565b50565b600033905090565b600073ffffffffffffffffffffffffffffffffffffffff168173ffffffffffffffffffffffffffffffffffffffff161415610731576040517f08c379a00000000000000000000000000000000000000000000000000000000081526004018080602001828103825260268152602001806107f06026913960400191505060405180910390fd5b8073ffffffffffffffffffffffffffffffffffffffff166000809054906101000a900473ffffffffffffffffffffffffffffffffffffffff1673ffffffffffffffffffffffffffffffffffffffff167f8be0079c531659141344cd1fd0a4f28419497f9722a3daafe3b4186f6b6457e060405160405180910390a3806000806101000a81548173ffffffffffffffffffffffffffffffffffffffff021916908373ffffffffffffffffffffffffffffffffffffffff1602179055505056fe4f776e61626c653a206e6577206f776e657220697320746865207a65726f20616464726573735f6164647220616c72656164792065786973747320696e2076656869636c6556656e646f7273a165627a7a72305820318ef40a2801ee7bb3ddd72cc49520f27506c43c4828c2da790300a72c20c2c20029",
  "source": "pragma solidity >=0.4.21 <0.6.0;\n\nimport \"../node_modules/@openzeppelin/contracts/ownership/Ownable.sol\";\n\ncontract KoreaVehicleVendors is Ownable {\n\n  struct VehicleVendor {\n    bytes32 vendorName;\n    address[] adminAccounts;\n  }\n\n  mapping (address => VehicleVendor) vehicleVendors;\n  mapping (address => bool) isVehicleVendor;\n\n  event AddVehicleVendor(bytes32 vendorName, address vendorAdmin);\n\n  modifier onlyUniqueAddressAllowed (address _addr) {\n    require(\n      isVehicleVendor[_addr] == false,\n      \"_addr already exists in vehicleVendors\"\n    );\n    _;\n  }\n\n  constructor () public {\n    \n  }\n\n  /**\n   * @param _vendorName vehicle vendor like \"Hyundai\", \"Kia\", \"\n   * @param _vendorAdmin address of vendor's admin\n   */\n  function addVehicleVendor (\n    bytes32 _vendorName, \n    address _vendorAdmin\n  )\n  public \n  onlyOwner\n  onlyUniqueAddressAllowed (_vendorAdmin)\n  returns (bool success)\n  {\n    vehicleVendors[_vendorAdmin].vendorName = _vendorName;\n    vehicleVendors[_vendorAdmin].adminAccounts.push(_vendorAdmin);\n\n    emit AddVehicleVendor(_vendorName, _vendorAdmin);\n    isVehicleVendor[_vendorAdmin] = true;\n    return true; \n  }\n}\n",
  "sourcePath": "/Users/aeharv/project/github/Modoos-Recall-Smart-Contract/contracts/KoreaVehicleVendors.sol",
  "compiler": {
    "name": "solc",
    "version": "0.5.8+commit.23d335f2.Emscripten.clang"
  },
  "schemaVersion": "3.0.16",
  "updatedAt": "2019-11-24T15:03:55.905Z",
  "devdoc": {
    "methods": {
      "addVehicleVendor(bytes32,address)": {
        "params": {
          "_vendorAdmin": "address of vendor's admin",
          "_vendorName": "vehicle vendor like \"Hyundai\", \"Kia\", \""
        }
      },
      "isOwner()": {
        "details": "Returns true if the caller is the current owner."
      },
      "owner()": {
        "details": "Returns the address of the current owner."
      },
      "renounceOwnership()": {
        "details": "Leaves the contract without owner. It will not be possible to call `onlyOwner` functions anymore. Can only be called by the current owner.     * NOTE: Renouncing ownership will leave the contract without an owner, thereby removing any functionality that is only available to the owner."
      },
      "transferOwnership(address)": {
        "details": "Transfers ownership of the contract to a new account (`newOwner`). Can only be called by the current owner."
      }
    }
  },
  "userdoc": {
    "methods": {}
  }
}