{
  "contractName": "KoreaVehicleVendors",
  "abi": [
    {
      "constant": true,
      "inputs": [
        {
          "name": "",
          "type": "address"
        }
      ],
      "name": "vehicleVendors",
      "outputs": [
        {
          "name": "vendorName",
          "type": "bytes32"
        },
        {
          "name": "isExist",
          "type": "bool"
        }
      ],
      "payable": false,
      "stateMutability": "view",
      "type": "function"
    },
    {
      "constant": false,
      "inputs": [],
      "name": "renounceOwnership",
      "outputs": [],
      "payable": false,
      "stateMutability": "nonpayable",
      "type": "function"
    },
    {
      "constant": true,
      "inputs": [
        {
          "name": "",
          "type": "address"
        }
      ],
      "name": "isVehicleVendor",
      "outputs": [
        {
          "name": "",
          "type": "bool"
        }
      ],
      "payable": false,
      "stateMutability": "view",
      "type": "function"
    },
    {
      "constant": true,
      "inputs": [],
      "name": "owner",
      "outputs": [
        {
          "name": "",
          "type": "address"
        }
      ],
      "payable": false,
      "stateMutability": "view",
      "type": "function"
    },
    {
      "constant": true,
      "inputs": [],
      "name": "isOwner",
      "outputs": [
        {
          "name": "",
          "type": "bool"
        }
      ],
      "payable": false,
      "stateMutability": "view",
      "type": "function"
    },
    {
      "constant": false,
      "inputs": [
        {
          "name": "newOwner",
          "type": "address"
        }
      ],
      "name": "transferOwnership",
      "outputs": [],
      "payable": false,
      "stateMutability": "nonpayable",
      "type": "function"
    },
    {
      "inputs": [],
      "payable": false,
      "stateMutability": "nonpayable",
      "type": "constructor"
    },
    {
      "anonymous": false,
      "inputs": [
        {
          "indexed": false,
          "name": "vendorName",
          "type": "bytes32"
        },
        {
          "indexed": false,
          "name": "vendorAdmin",
          "type": "address"
        }
      ],
      "name": "AddVehicleVendor",
      "type": "event"
    },
    {
      "anonymous": false,
      "inputs": [
        {
          "indexed": true,
          "name": "previousOwner",
          "type": "address"
        },
        {
          "indexed": true,
          "name": "newOwner",
          "type": "address"
        }
      ],
      "name": "OwnershipTransferred",
      "type": "event"
    },
    {
      "constant": false,
      "inputs": [
        {
          "name": "_vendorName",
          "type": "bytes32"
        },
        {
          "name": "_vendorAdmin",
          "type": "address"
        }
      ],
      "name": "addVehicleVendor",
      "outputs": [
        {
          "name": "success",
          "type": "bool"
        }
      ],
      "payable": false,
      "stateMutability": "nonpayable",
      "type": "function"
    },
    {
      "constant": true,
      "inputs": [
        {
          "name": "_vendorAdmin",
          "type": "address"
        }
      ],
      "name": "getVehicleVendorName",
      "outputs": [
        {
          "name": "vendorName",
          "type": "bytes32"
        }
      ],
      "payable": false,
      "stateMutability": "view",
      "type": "function"
    }
  ],
  "bytecode": "0x608060405234801561001057600080fd5b506100286100e8640100000000026401000000009004565b6000806101000a81548173ffffffffffffffffffffffffffffffffffffffff021916908373ffffffffffffffffffffffffffffffffffffffff1602179055506000809054906101000a900473ffffffffffffffffffffffffffffffffffffffff1673ffffffffffffffffffffffffffffffffffffffff16600073ffffffffffffffffffffffffffffffffffffffff167f8be0079c531659141344cd1fd0a4f28419497f9722a3daafe3b4186f6b6457e060405160405180910390a36100f0565b600033905090565b610ba9806100ff6000396000f3fe608060405260043610610088576000357c01000000000000000000000000000000000000000000000000000000009004806326583fc61461008d578063400f1415146100f257806341141a1714610162578063715018a6146101d55780637b658594146101ec5780638da5cb5b146102555780638f32d59b146102ac578063f2fde38b146102db575b600080fd5b34801561009957600080fd5b506100dc600480360360208110156100b057600080fd5b81019080803573ffffffffffffffffffffffffffffffffffffffff16906020019092919050505061032c565b6040518082815260200191505060405180910390f35b3480156100fe57600080fd5b506101416004803603602081101561011557600080fd5b81019080803573ffffffffffffffffffffffffffffffffffffffff169060200190929190505050610378565b60405180838152602001821515151581526020019250505060405180910390f35b34801561016e57600080fd5b506101bb6004803603604081101561018557600080fd5b8101908080359060200190929190803573ffffffffffffffffffffffffffffffffffffffff1690602001909291905050506103a9565b604051808215151515815260200191505060405180910390f35b3480156101e157600080fd5b506101ea610782565b005b3480156101f857600080fd5b5061023b6004803603602081101561020f57600080fd5b81019080803573ffffffffffffffffffffffffffffffffffffffff1690602001909291905050506108bd565b604051808215151515815260200191505060405180910390f35b34801561026157600080fd5b5061026a6108dd565b604051808273ffffffffffffffffffffffffffffffffffffffff1673ffffffffffffffffffffffffffffffffffffffff16815260200191505060405180910390f35b3480156102b857600080fd5b506102c1610906565b604051808215151515815260200191505060405180910390f35b3480156102e757600080fd5b5061032a600480360360208110156102fe57600080fd5b81019080803573ffffffffffffffffffffffffffffffffffffffff169060200190929190505050610964565b005b6000600160008373ffffffffffffffffffffffffffffffffffffffff1673ffffffffffffffffffffffffffffffffffffffff168152602001908152602001600020600001549050919050565b60016020528060005260406000206000915090508060000154908060020160009054906101000a900460ff16905082565b60006103b3610906565b1515610427576040517f08c379a00000000000000000000000000000000000000000000000000000000081526004018080602001828103825260208152602001807f4f776e61626c653a2063616c6c6572206973206e6f7420746865206f776e657281525060200191505060405180910390fd5b8160001515600260008373ffffffffffffffffffffffffffffffffffffffff1673ffffffffffffffffffffffffffffffffffffffff16815260200190815260200160002060009054906101000a900460ff161515141515610516576040517f08c379a00000000000000000000000000000000000000000000000000000000081526004018080602001828103825260268152602001807f5f6164647220616c72656164792065786973747320696e2076656869636c655681526020017f656e646f7273000000000000000000000000000000000000000000000000000081525060400191505060405180910390fd5b60011515600160008573ffffffffffffffffffffffffffffffffffffffff1673ffffffffffffffffffffffffffffffffffffffff16815260200190815260200160002060020160009054906101000a900460ff161515141561057b576000915061077b565b83600160008573ffffffffffffffffffffffffffffffffffffffff1673ffffffffffffffffffffffffffffffffffffffff1681526020019081526020016000206000018190555060018060008573ffffffffffffffffffffffffffffffffffffffff1673ffffffffffffffffffffffffffffffffffffffff16815260200190815260200160002060010160008573ffffffffffffffffffffffffffffffffffffffff1673ffffffffffffffffffffffffffffffffffffffff16815260200190815260200160002060006101000a81548160ff02191690831515021790555060018060008573ffffffffffffffffffffffffffffffffffffffff1673ffffffffffffffffffffffffffffffffffffffff16815260200190815260200160002060020160006101000a81548160ff0219169083151502179055507f72faafae076b34bca7394603d775fc1a5d9081361444587f79eeb5e8e157304f8484604051808381526020018273ffffffffffffffffffffffffffffffffffffffff1673ffffffffffffffffffffffffffffffffffffffff1681526020019250505060405180910390a16001600260008573ffffffffffffffffffffffffffffffffffffffff1673ffffffffffffffffffffffffffffffffffffffff16815260200190815260200160002060006101000a81548160ff021916908315150217905550600191505b5092915050565b61078a610906565b15156107fe576040517f08c379a00000000000000000000000000000000000000000000000000000000081526004018080602001828103825260208152602001807f4f776e61626c653a2063616c6c6572206973206e6f7420746865206f776e657281525060200191505060405180910390fd5b600073ffffffffffffffffffffffffffffffffffffffff166000809054906101000a900473ffffffffffffffffffffffffffffffffffffffff1673ffffffffffffffffffffffffffffffffffffffff167f8be0079c531659141344cd1fd0a4f28419497f9722a3daafe3b4186f6b6457e060405160405180910390a360008060006101000a81548173ffffffffffffffffffffffffffffffffffffffff021916908373ffffffffffffffffffffffffffffffffffffffff160217905550565b60026020528060005260406000206000915054906101000a900460ff1681565b60008060009054906101000a900473ffffffffffffffffffffffffffffffffffffffff16905090565b60008060009054906101000a900473ffffffffffffffffffffffffffffffffffffffff1673ffffffffffffffffffffffffffffffffffffffff166109486109ec565b73ffffffffffffffffffffffffffffffffffffffff1614905090565b61096c610906565b15156109e0576040517f08c379a00000000000000000000000000000000000000000000000000000000081526004018080602001828103825260208152602001807f4f776e61626c653a2063616c6c6572206973206e6f7420746865206f776e657281525060200191505060405180910390fd5b6109e9816109f4565b50565b600033905090565b600073ffffffffffffffffffffffffffffffffffffffff168173ffffffffffffffffffffffffffffffffffffffff1614151515610abf576040517f08c379a00000000000000000000000000000000000000000000000000000000081526004018080602001828103825260268152602001807f4f776e61626c653a206e6577206f776e657220697320746865207a65726f206181526020017f646472657373000000000000000000000000000000000000000000000000000081525060400191505060405180910390fd5b8073ffffffffffffffffffffffffffffffffffffffff166000809054906101000a900473ffffffffffffffffffffffffffffffffffffffff1673ffffffffffffffffffffffffffffffffffffffff167f8be0079c531659141344cd1fd0a4f28419497f9722a3daafe3b4186f6b6457e060405160405180910390a3806000806101000a81548173ffffffffffffffffffffffffffffffffffffffff021916908373ffffffffffffffffffffffffffffffffffffffff1602179055505056fea165627a7a72305820dea099e2705e32ebd80cf2c5d5cd8fc713486a322bacd7016d146155409477cc0029",
  "source": "pragma solidity >=0.4.21 <0.6.0;\n\nimport \"../node_modules/@openzeppelin/contracts/ownership/Ownable.sol\";\n\ncontract KoreaVehicleVendors is Ownable {\n\n  struct VehicleVendor {\n    bytes32 vendorName;\n    mapping (address => bool) adminAccounts;\n    bool isExist;\n  }\n\n  mapping (address => VehicleVendor) public vehicleVendors;\n  mapping (address => bool) public isVehicleVendor;\n\n  event AddVehicleVendor(bytes32 vendorName, address vendorAdmin);\n\n  modifier onlyUniqueAddressAllowed (address _addr) {\n    require(\n      isVehicleVendor[_addr] == false,\n      \"_addr already exists in vehicleVendors\"\n    );\n    _;\n  }\n\n  constructor () public {\n    \n  }\n\n  /**\n   * @param _vendorName vehicle vendor like \"Hyundai\", \"Kia\"\n   * @param _vendorAdmin address of vendor's admin\n   */\n  function addVehicleVendor (\n    bytes32 _vendorName, \n    address _vendorAdmin\n  )\n  public \n  onlyOwner\n  onlyUniqueAddressAllowed (_vendorAdmin)\n  returns (bool success)\n  {\n    if (vehicleVendors[_vendorAdmin].isExist == true) {\n      return false;\n    }\n\n    vehicleVendors[_vendorAdmin].vendorName = _vendorName;\n    vehicleVendors[_vendorAdmin].adminAccounts[_vendorAdmin] = true;\n    vehicleVendors[_vendorAdmin].isExist = true;\n\n    emit AddVehicleVendor(_vendorName, _vendorAdmin);\n    isVehicleVendor[_vendorAdmin] = true;\n    return true; \n  }\n\n  function getVehicleVendorName (\n    address _vendorAdmin\n  )\n  public\n  view\n  returns (bytes32 vendorName)\n  {\n    return vehicleVendors[_vendorAdmin].vendorName;\n  }\n}\n",
  "sourcePath": "/Users/aeharv/project/github/Modoos-Recall-Smart-Contract/contracts/KoreaVehicleVendors.sol",
  "compiler": {
    "name": "solc",
    "version": "0.5.1+commit.c8a2cb62.Linux.g++"
  },
  "schemaVersion": "3.0.16",
  "updatedAt": "2019-11-29T07:31:34.112Z",
  "devdoc": {
    "methods": {
      "addVehicleVendor(bytes32,address)": {
        "params": {
          "_vendorAdmin": "address of vendor's admin",
          "_vendorName": "vehicle vendor like \"Hyundai\", \"Kia\""
        }
      },
      "isOwner()": {
        "details": "Returns true if the caller is the current owner."
      },
      "owner()": {
        "details": "Returns the address of the current owner."
      },
      "renounceOwnership()": {
        "details": "Leaves the contract without owner. It will not be possible to call `onlyOwner` functions anymore. Can only be called by the current owner.     * NOTE: Renouncing ownership will leave the contract without an owner, thereby removing any functionality that is only available to the owner."
      },
      "transferOwnership(address)": {
        "details": "Transfers ownership of the contract to a new account (`newOwner`). Can only be called by the current owner."
      }
    }
  },
  "userdoc": {
    "methods": {}
  }
}